{
  "contractName": "VoteForBest",
  "abi": [
    {
      "constant": true,
      "inputs": [],
      "name": "itsAlwaysSunny",
      "outputs": [
        {
          "internalType": "uint256",
          "name": "",
          "type": "uint256"
        }
      ],
      "payable": false,
      "stateMutability": "view",
      "type": "function"
    },
    {
      "constant": true,
      "inputs": [],
      "name": "southPark",
      "outputs": [
        {
          "internalType": "uint256",
          "name": "",
          "type": "uint256"
        }
      ],
      "payable": false,
      "stateMutability": "view",
      "type": "function"
    },
    {
      "constant": false,
      "inputs": [],
      "name": "voteSouthPark",
      "outputs": [],
      "payable": false,
      "stateMutability": "nonpayable",
      "type": "function"
    },
    {
      "constant": false,
      "inputs": [],
      "name": "voteItAlwaysSunny",
      "outputs": [],
      "payable": false,
      "stateMutability": "nonpayable",
      "type": "function"
    }
  ],
  "bytecode": "0x608060405234801561001057600080fd5b5060fb8061001f6000396000f3fe6080604052348015600f57600080fd5b506004361060465760003560e01c80634568d6ae14604b5780636ef4f9f814606757806395f7236914606f578063e74d8779146077575b600080fd5b60516093565b6040518082815260200191505060405180910390f35b606d6099565b005b607560ac565b005b607d60c0565b6040518082815260200191505060405180910390f35b60015481565b6000808154809291906001019190505550565b600160008154809291906001019190505550565b6000548156fea265627a7a72315820693b9143a3e564930300f91a346721c0318ca29a5123b8aff4001606d53d916664736f6c63430005100032",
  "source": "pragma solidity ^0.5.0;\n\ncontract VoteForBest{\n\tuint256 public southPark;\n\tuint256 public itsAlwaysSunny;\n\n\n\tfunction voteSouthPark()public{\n\t\tsouthPark++;\n\t}\n\n\tfunction voteItAlwaysSunny()public{\n\t\titsAlwaysSunny++;\n\t}\n\n}\n",
  "sourcePath": "/Users/francisdailig/Library/Mobile Documents/com~apple~CloudDocs/OSU/cs361_SE1/prototype/cs340_Databases/src/contracts/Vote.sol",
  "compiler": {
    "name": "solc",
    "version": "0.5.16+commit.9c3226ce.Emscripten.clang"
  },
  "schemaVersion": "3.2.3",
  "updatedAt": "2021-07-18T07:37:17.788Z",
  "devdoc": {
    "methods": {}
  },
  "userdoc": {
    "methods": {}
  }
}